{
  "contracts/Potato.sol": {
    "Potato": {
      "abi": [
        {
          "inputs": [
            {
              "internalType": "uint256",
              "name": "_potato",
              "type": "uint256"
            },
            {
              "internalType": "uint256",
              "name": "_sourcream",
              "type": "uint256"
            },
            {
              "internalType": "uint256",
              "name": "_cheese",
              "type": "uint256"
            },
            {
              "internalType": "uint256",
              "name": "_bacon",
              "type": "uint256"
            },
            {
              "internalType": "uint256",
              "name": "_chives",
              "type": "uint256"
            }
          ],
          "name": "addIngredient",
          "outputs": [],
          "stateMutability": "nonpayable",
          "type": "function"
        },
        {
          "inputs": [
            {
              "internalType": "uint256",
              "name": "_potato",
              "type": "uint256"
            },
            {
              "internalType": "uint256",
              "name": "_sourcream",
              "type": "uint256"
            },
            {
              "internalType": "uint256",
              "name": "_cheese",
              "type": "uint256"
            },
            {
              "internalType": "uint256",
              "name": "_bacon",
              "type": "uint256"
            },
            {
              "internalType": "uint256",
              "name": "_chives",
              "type": "uint256"
            }
          ],
          "name": "buyPotato",
          "outputs": [],
          "stateMutability": "payable",
          "type": "function"
        },
        {
          "inputs": [],
          "name": "getIngredients",
          "outputs": [
            {
              "internalType": "uint256[]",
              "name": "",
              "type": "uint256[]"
            }
          ],
          "stateMutability": "view",
          "type": "function"
        }
      ],
      "evm": {
        "bytecode": {
          "linkReferences": {},
          "object": "6080604052348015600f57600080fd5b50610ae88061001f6000396000f3fe6080604052600436106100345760003560e01c806330eab276146100395780637fe4282514610062578063b0d141331461007e575b600080fd5b34801561004557600080fd5b50610060600480360381019061005b919061051b565b6100a9565b005b61007c6004803603810190610077919061051b565b61012c565b005b34801561008a57600080fd5b506100936103da565b6040516100a09190610654565b60405180910390f35b846000808282546100ba91906106a5565b9250508190555083600160008282546100d391906106a5565b9250508190555082600260008282546100ec91906106a5565b92505081905550816003600082825461010591906106a5565b92505081905550806004600082825461011e91906106a5565b925050819055505050505050565b60016000541015610172576040517f08c379a000000000000000000000000000000000000000000000000000000000815260040161016990610736565b60405180910390fd5b600185146101b5576040517f08c379a00000000000000000000000000000000000000000000000000000000081526004016101ac906107a2565b60405180910390fd5b8360015410156101fa576040517f08c379a00000000000000000000000000000000000000000000000000000000081526004016101f19061080e565b60405180910390fd5b82600254101561023f576040517f08c379a00000000000000000000000000000000000000000000000000000000081526004016102369061087a565b60405180910390fd5b816003541015610284576040517f08c379a000000000000000000000000000000000000000000000000000000000815260040161027b906108e6565b60405180910390fd5b8060045410156102c9576040517f08c379a00000000000000000000000000000000000000000000000000000000081526004016102c090610952565b60405180910390fd5b6000655af3107a4000828486886102e091906106a5565b6102ea91906106a5565b6102f491906106a5565b6102fe9190610972565b6601c6bf5263400061031091906106a5565b905080341015610355576040517f08c379a000000000000000000000000000000000000000000000000000000000815260040161034c90610a00565b60405180910390fd5b60016000808282546103679190610a20565b9250508190555084600160008282546103809190610a20565b9250508190555083600260008282546103999190610a20565b9250508190555082600360008282546103b29190610a20565b9250508190555081600460008282546103cb9190610a20565b92505081905550505050505050565b60606000600567ffffffffffffffff8111156103f9576103f8610a54565b5b6040519080825280602002602001820160405280156104275781602001602082028036833780820191505090505b5090506000548160008151811061044157610440610a83565b5b6020026020010181815250506001548160018151811061046457610463610a83565b5b6020026020010181815250506002548160028151811061048757610486610a83565b5b602002602001018181525050600354816003815181106104aa576104a9610a83565b5b602002602001018181525050600454816004815181106104cd576104cc610a83565b5b6020026020010181815250508091505090565b600080fd5b6000819050919050565b6104f8816104e5565b811461050357600080fd5b50565b600081359050610515816104ef565b92915050565b600080600080600060a08688031215610537576105366104e0565b5b600061054588828901610506565b955050602061055688828901610506565b945050604061056788828901610506565b935050606061057888828901610506565b925050608061058988828901610506565b9150509295509295909350565b600081519050919050565b600082825260208201905092915050565b6000819050602082019050919050565b6105cb816104e5565b82525050565b60006105dd83836105c2565b60208301905092915050565b6000602082019050919050565b600061060182610596565b61060b81856105a1565b9350610616836105b2565b8060005b8381101561064757815161062e88826105d1565b9750610639836105e9565b92505060018101905061061a565b5085935050505092915050565b6000602082019050818103600083015261066e81846105f6565b905092915050565b7f4e487b7100000000000000000000000000000000000000000000000000000000600052601160045260246000fd5b60006106b0826104e5565b91506106bb836104e5565b92508282019050808211156106d3576106d2610676565b5b92915050565b600082825260208201905092915050565b7f4e6f7420656e6f75676820706f7461746f657320617661696c61626c652e0000600082015250565b6000610720601e836106d9565b915061072b826106ea565b602082019050919050565b6000602082019050818103600083015261074f81610713565b9050919050565b7f506c6561736520627579203120706f7461746f20617420612074696d652e0000600082015250565b600061078c601e836106d9565b915061079782610756565b602082019050919050565b600060208201905081810360008301526107bb8161077f565b9050919050565b7f4e6f7420656e6f75676820736f757220637265616d20617661696c61626c652e600082015250565b60006107f86020836106d9565b9150610803826107c2565b602082019050919050565b60006020820190508181036000830152610827816107eb565b9050919050565b7f4e6f7420656e6f7567682063686565736520617661696c61626c652e00000000600082015250565b6000610864601c836106d9565b915061086f8261082e565b602082019050919050565b6000602082019050818103600083015261089381610857565b9050919050565b7f4e6f7420656e6f756768206261636f6e20617661696c61626c652e0000000000600082015250565b60006108d0601b836106d9565b91506108db8261089a565b602082019050919050565b600060208201905081810360008301526108ff816108c3565b9050919050565b7f4e6f7420656e6f7567682063686976657320617661696c61626c652e00000000600082015250565b600061093c601c836106d9565b915061094782610906565b602082019050919050565b6000602082019050818103600083015261096b8161092f565b9050919050565b600061097d826104e5565b9150610988836104e5565b9250828202610996816104e5565b915082820484148315176109ad576109ac610676565b5b5092915050565b7f4e6f7420656e6f756768204554482073656e742e000000000000000000000000600082015250565b60006109ea6014836106d9565b91506109f5826109b4565b602082019050919050565b60006020820190508181036000830152610a19816109dd565b9050919050565b6000610a2b826104e5565b9150610a36836104e5565b9250828203905081811115610a4e57610a4d610676565b5b92915050565b7f4e487b7100000000000000000000000000000000000000000000000000000000600052604160045260246000fd5b7f4e487b7100000000000000000000000000000000000000000000000000000000600052603260045260246000fdfea2646970667358221220513d7fa99f53fc266a766dd6197cd71aabd8f01f332a1c19a70d5698873780c964736f6c634300081b0033",
          "opcodes": "PUSH1 0x80 PUSH1 0x40 MSTORE CALLVALUE DUP1 ISZERO PUSH1 0xF JUMPI PUSH1 0x0 DUP1 REVERT JUMPDEST POP PUSH2 0xAE8 DUP1 PUSH2 0x1F PUSH1 0x0 CODECOPY PUSH1 0x0 RETURN INVALID PUSH1 0x80 PUSH1 0x40 MSTORE PUSH1 0x4 CALLDATASIZE LT PUSH2 0x34 JUMPI PUSH1 0x0 CALLDATALOAD PUSH1 0xE0 SHR DUP1 PUSH4 0x30EAB276 EQ PUSH2 0x39 JUMPI DUP1 PUSH4 0x7FE42825 EQ PUSH2 0x62 JUMPI DUP1 PUSH4 0xB0D14133 EQ PUSH2 0x7E JUMPI JUMPDEST PUSH1 0x0 DUP1 REVERT JUMPDEST CALLVALUE DUP1 ISZERO PUSH2 0x45 JUMPI PUSH1 0x0 DUP1 REVERT JUMPDEST POP PUSH2 0x60 PUSH1 0x4 DUP1 CALLDATASIZE SUB DUP2 ADD SWAP1 PUSH2 0x5B SWAP2 SWAP1 PUSH2 0x51B JUMP JUMPDEST PUSH2 0xA9 JUMP JUMPDEST STOP JUMPDEST PUSH2 0x7C PUSH1 0x4 DUP1 CALLDATASIZE SUB DUP2 ADD SWAP1 PUSH2 0x77 SWAP2 SWAP1 PUSH2 0x51B JUMP JUMPDEST PUSH2 0x12C JUMP JUMPDEST STOP JUMPDEST CALLVALUE DUP1 ISZERO PUSH2 0x8A JUMPI PUSH1 0x0 DUP1 REVERT JUMPDEST POP PUSH2 0x93 PUSH2 0x3DA JUMP JUMPDEST PUSH1 0x40 MLOAD PUSH2 0xA0 SWAP2 SWAP1 PUSH2 0x654 JUMP JUMPDEST PUSH1 0x40 MLOAD DUP1 SWAP2 SUB SWAP1 RETURN JUMPDEST DUP5 PUSH1 0x0 DUP1 DUP3 DUP3 SLOAD PUSH2 0xBA SWAP2 SWAP1 PUSH2 0x6A5 JUMP JUMPDEST SWAP3 POP POP DUP2 SWAP1 SSTORE POP DUP4 PUSH1 0x1 PUSH1 0x0 DUP3 DUP3 SLOAD PUSH2 0xD3 SWAP2 SWAP1 PUSH2 0x6A5 JUMP JUMPDEST SWAP3 POP POP DUP2 SWAP1 SSTORE POP DUP3 PUSH1 0x2 PUSH1 0x0 DUP3 DUP3 SLOAD PUSH2 0xEC SWAP2 SWAP1 PUSH2 0x6A5 JUMP JUMPDEST SWAP3 POP POP DUP2 SWAP1 SSTORE POP DUP2 PUSH1 0x3 PUSH1 0x0 DUP3 DUP3 SLOAD PUSH2 0x105 SWAP2 SWAP1 PUSH2 0x6A5 JUMP JUMPDEST SWAP3 POP POP DUP2 SWAP1 SSTORE POP DUP1 PUSH1 0x4 PUSH1 0x0 DUP3 DUP3 SLOAD PUSH2 0x11E SWAP2 SWAP1 PUSH2 0x6A5 JUMP JUMPDEST SWAP3 POP POP DUP2 SWAP1 SSTORE POP POP POP POP POP POP JUMP JUMPDEST PUSH1 0x1 PUSH1 0x0 SLOAD LT ISZERO PUSH2 0x172 JUMPI PUSH1 0x40 MLOAD PUSH32 0x8C379A000000000000000000000000000000000000000000000000000000000 DUP2 MSTORE PUSH1 0x4 ADD PUSH2 0x169 SWAP1 PUSH2 0x736 JUMP JUMPDEST PUSH1 0x40 MLOAD DUP1 SWAP2 SUB SWAP1 REVERT JUMPDEST PUSH1 0x1 DUP6 EQ PUSH2 0x1B5 JUMPI PUSH1 0x40 MLOAD PUSH32 0x8C379A000000000000000000000000000000000000000000000000000000000 DUP2 MSTORE PUSH1 0x4 ADD PUSH2 0x1AC SWAP1 PUSH2 0x7A2 JUMP JUMPDEST PUSH1 0x40 MLOAD DUP1 SWAP2 SUB SWAP1 REVERT JUMPDEST DUP4 PUSH1 0x1 SLOAD LT ISZERO PUSH2 0x1FA JUMPI PUSH1 0x40 MLOAD PUSH32 0x8C379A000000000000000000000000000000000000000000000000000000000 DUP2 MSTORE PUSH1 0x4 ADD PUSH2 0x1F1 SWAP1 PUSH2 0x80E JUMP JUMPDEST PUSH1 0x40 MLOAD DUP1 SWAP2 SUB SWAP1 REVERT JUMPDEST DUP3 PUSH1 0x2 SLOAD LT ISZERO PUSH2 0x23F JUMPI PUSH1 0x40 MLOAD PUSH32 0x8C379A000000000000000000000000000000000000000000000000000000000 DUP2 MSTORE PUSH1 0x4 ADD PUSH2 0x236 SWAP1 PUSH2 0x87A JUMP JUMPDEST PUSH1 0x40 MLOAD DUP1 SWAP2 SUB SWAP1 REVERT JUMPDEST DUP2 PUSH1 0x3 SLOAD LT ISZERO PUSH2 0x284 JUMPI PUSH1 0x40 MLOAD PUSH32 0x8C379A000000000000000000000000000000000000000000000000000000000 DUP2 MSTORE PUSH1 0x4 ADD PUSH2 0x27B SWAP1 PUSH2 0x8E6 JUMP JUMPDEST PUSH1 0x40 MLOAD DUP1 SWAP2 SUB SWAP1 REVERT JUMPDEST DUP1 PUSH1 0x4 SLOAD LT ISZERO PUSH2 0x2C9 JUMPI PUSH1 0x40 MLOAD PUSH32 0x8C379A000000000000000000000000000000000000000000000000000000000 DUP2 MSTORE PUSH1 0x4 ADD PUSH2 0x2C0 SWAP1 PUSH2 0x952 JUMP JUMPDEST PUSH1 0x40 MLOAD DUP1 SWAP2 SUB SWAP1 REVERT JUMPDEST PUSH1 0x0 PUSH6 0x5AF3107A4000 DUP3 DUP5 DUP7 DUP9 PUSH2 0x2E0 SWAP2 SWAP1 PUSH2 0x6A5 JUMP JUMPDEST PUSH2 0x2EA SWAP2 SWAP1 PUSH2 0x6A5 JUMP JUMPDEST PUSH2 0x2F4 SWAP2 SWAP1 PUSH2 0x6A5 JUMP JUMPDEST PUSH2 0x2FE SWAP2 SWAP1 PUSH2 0x972 JUMP JUMPDEST PUSH7 0x1C6BF52634000 PUSH2 0x310 SWAP2 SWAP1 PUSH2 0x6A5 JUMP JUMPDEST SWAP1 POP DUP1 CALLVALUE LT ISZERO PUSH2 0x355 JUMPI PUSH1 0x40 MLOAD PUSH32 0x8C379A000000000000000000000000000000000000000000000000000000000 DUP2 MSTORE PUSH1 0x4 ADD PUSH2 0x34C SWAP1 PUSH2 0xA00 JUMP JUMPDEST PUSH1 0x40 MLOAD DUP1 SWAP2 SUB SWAP1 REVERT JUMPDEST PUSH1 0x1 PUSH1 0x0 DUP1 DUP3 DUP3 SLOAD PUSH2 0x367 SWAP2 SWAP1 PUSH2 0xA20 JUMP JUMPDEST SWAP3 POP POP DUP2 SWAP1 SSTORE POP DUP5 PUSH1 0x1 PUSH1 0x0 DUP3 DUP3 SLOAD PUSH2 0x380 SWAP2 SWAP1 PUSH2 0xA20 JUMP JUMPDEST SWAP3 POP POP DUP2 SWAP1 SSTORE POP DUP4 PUSH1 0x2 PUSH1 0x0 DUP3 DUP3 SLOAD PUSH2 0x399 SWAP2 SWAP1 PUSH2 0xA20 JUMP JUMPDEST SWAP3 POP POP DUP2 SWAP1 SSTORE POP DUP3 PUSH1 0x3 PUSH1 0x0 DUP3 DUP3 SLOAD PUSH2 0x3B2 SWAP2 SWAP1 PUSH2 0xA20 JUMP JUMPDEST SWAP3 POP POP DUP2 SWAP1 SSTORE POP DUP2 PUSH1 0x4 PUSH1 0x0 DUP3 DUP3 SLOAD PUSH2 0x3CB SWAP2 SWAP1 PUSH2 0xA20 JUMP JUMPDEST SWAP3 POP POP DUP2 SWAP1 SSTORE POP POP POP POP POP POP POP JUMP JUMPDEST PUSH1 0x60 PUSH1 0x0 PUSH1 0x5 PUSH8 0xFFFFFFFFFFFFFFFF DUP2 GT ISZERO PUSH2 0x3F9 JUMPI PUSH2 0x3F8 PUSH2 0xA54 JUMP JUMPDEST JUMPDEST PUSH1 0x40 MLOAD SWAP1 DUP1 DUP3 MSTORE DUP1 PUSH1 0x20 MUL PUSH1 0x20 ADD DUP3 ADD PUSH1 0x40 MSTORE DUP1 ISZERO PUSH2 0x427 JUMPI DUP2 PUSH1 0x20 ADD PUSH1 0x20 DUP3 MUL DUP1 CALLDATASIZE DUP4 CALLDATACOPY DUP1 DUP3 ADD SWAP2 POP POP SWAP1 POP JUMPDEST POP SWAP1 POP PUSH1 0x0 SLOAD DUP2 PUSH1 0x0 DUP2 MLOAD DUP2 LT PUSH2 0x441 JUMPI PUSH2 0x440 PUSH2 0xA83 JUMP JUMPDEST JUMPDEST PUSH1 0x20 MUL PUSH1 0x20 ADD ADD DUP2 DUP2 MSTORE POP POP PUSH1 0x1 SLOAD DUP2 PUSH1 0x1 DUP2 MLOAD DUP2 LT PUSH2 0x464 JUMPI PUSH2 0x463 PUSH2 0xA83 JUMP JUMPDEST JUMPDEST PUSH1 0x20 MUL PUSH1 0x20 ADD ADD DUP2 DUP2 MSTORE POP POP PUSH1 0x2 SLOAD DUP2 PUSH1 0x2 DUP2 MLOAD DUP2 LT PUSH2 0x487 JUMPI PUSH2 0x486 PUSH2 0xA83 JUMP JUMPDEST JUMPDEST PUSH1 0x20 MUL PUSH1 0x20 ADD ADD DUP2 DUP2 MSTORE POP POP PUSH1 0x3 SLOAD DUP2 PUSH1 0x3 DUP2 MLOAD DUP2 LT PUSH2 0x4AA JUMPI PUSH2 0x4A9 PUSH2 0xA83 JUMP JUMPDEST JUMPDEST PUSH1 0x20 MUL PUSH1 0x20 ADD ADD DUP2 DUP2 MSTORE POP POP PUSH1 0x4 SLOAD DUP2 PUSH1 0x4 DUP2 MLOAD DUP2 LT PUSH2 0x4CD JUMPI PUSH2 0x4CC PUSH2 0xA83 JUMP JUMPDEST JUMPDEST PUSH1 0x20 MUL PUSH1 0x20 ADD ADD DUP2 DUP2 MSTORE POP POP DUP1 SWAP2 POP POP SWAP1 JUMP JUMPDEST PUSH1 0x0 DUP1 REVERT JUMPDEST PUSH1 0x0 DUP2 SWAP1 POP SWAP2 SWAP1 POP JUMP JUMPDEST PUSH2 0x4F8 DUP2 PUSH2 0x4E5 JUMP JUMPDEST DUP2 EQ PUSH2 0x503 JUMPI PUSH1 0x0 DUP1 REVERT JUMPDEST POP JUMP JUMPDEST PUSH1 0x0 DUP2 CALLDATALOAD SWAP1 POP PUSH2 0x515 DUP2 PUSH2 0x4EF JUMP JUMPDEST SWAP3 SWAP2 POP POP JUMP JUMPDEST PUSH1 0x0 DUP1 PUSH1 0x0 DUP1 PUSH1 0x0 PUSH1 0xA0 DUP7 DUP9 SUB SLT ISZERO PUSH2 0x537 JUMPI PUSH2 0x536 PUSH2 0x4E0 JUMP JUMPDEST JUMPDEST PUSH1 0x0 PUSH2 0x545 DUP9 DUP3 DUP10 ADD PUSH2 0x506 JUMP JUMPDEST SWAP6 POP POP PUSH1 0x20 PUSH2 0x556 DUP9 DUP3 DUP10 ADD PUSH2 0x506 JUMP JUMPDEST SWAP5 POP POP PUSH1 0x40 PUSH2 0x567 DUP9 DUP3 DUP10 ADD PUSH2 0x506 JUMP JUMPDEST SWAP4 POP POP PUSH1 0x60 PUSH2 0x578 DUP9 DUP3 DUP10 ADD PUSH2 0x506 JUMP JUMPDEST SWAP3 POP POP PUSH1 0x80 PUSH2 0x589 DUP9 DUP3 DUP10 ADD PUSH2 0x506 JUMP JUMPDEST SWAP2 POP POP SWAP3 SWAP6 POP SWAP3 SWAP6 SWAP1 SWAP4 POP JUMP JUMPDEST PUSH1 0x0 DUP2 MLOAD SWAP1 POP SWAP2 SWAP1 POP JUMP JUMPDEST PUSH1 0x0 DUP3 DUP3 MSTORE PUSH1 0x20 DUP3 ADD SWAP1 POP SWAP3 SWAP2 POP POP JUMP JUMPDEST PUSH1 0x0 DUP2 SWAP1 POP PUSH1 0x20 DUP3 ADD SWAP1 POP SWAP2 SWAP1 POP JUMP JUMPDEST PUSH2 0x5CB DUP2 PUSH2 0x4E5 JUMP JUMPDEST DUP3 MSTORE POP POP JUMP JUMPDEST PUSH1 0x0 PUSH2 0x5DD DUP4 DUP4 PUSH2 0x5C2 JUMP JUMPDEST PUSH1 0x20 DUP4 ADD SWAP1 POP SWAP3 SWAP2 POP POP JUMP JUMPDEST PUSH1 0x0 PUSH1 0x20 DUP3 ADD SWAP1 POP SWAP2 SWAP1 POP JUMP JUMPDEST PUSH1 0x0 PUSH2 0x601 DUP3 PUSH2 0x596 JUMP JUMPDEST PUSH2 0x60B DUP2 DUP6 PUSH2 0x5A1 JUMP JUMPDEST SWAP4 POP PUSH2 0x616 DUP4 PUSH2 0x5B2 JUMP JUMPDEST DUP1 PUSH1 0x0 JUMPDEST DUP4 DUP2 LT ISZERO PUSH2 0x647 JUMPI DUP2 MLOAD PUSH2 0x62E DUP9 DUP3 PUSH2 0x5D1 JUMP JUMPDEST SWAP8 POP PUSH2 0x639 DUP4 PUSH2 0x5E9 JUMP JUMPDEST SWAP3 POP POP PUSH1 0x1 DUP2 ADD SWAP1 POP PUSH2 0x61A JUMP JUMPDEST POP DUP6 SWAP4 POP POP POP POP SWAP3 SWAP2 POP POP JUMP JUMPDEST PUSH1 0x0 PUSH1 0x20 DUP3 ADD SWAP1 POP DUP2 DUP2 SUB PUSH1 0x0 DUP4 ADD MSTORE PUSH2 0x66E DUP2 DUP5 PUSH2 0x5F6 JUMP JUMPDEST SWAP1 POP SWAP3 SWAP2 POP POP JUMP JUMPDEST PUSH32 0x4E487B7100000000000000000000000000000000000000000000000000000000 PUSH1 0x0 MSTORE PUSH1 0x11 PUSH1 0x4 MSTORE PUSH1 0x24 PUSH1 0x0 REVERT JUMPDEST PUSH1 0x0 PUSH2 0x6B0 DUP3 PUSH2 0x4E5 JUMP JUMPDEST SWAP2 POP PUSH2 0x6BB DUP4 PUSH2 0x4E5 JUMP JUMPDEST SWAP3 POP DUP3 DUP3 ADD SWAP1 POP DUP1 DUP3 GT ISZERO PUSH2 0x6D3 JUMPI PUSH2 0x6D2 PUSH2 0x676 JUMP JUMPDEST JUMPDEST SWAP3 SWAP2 POP POP JUMP JUMPDEST PUSH1 0x0 DUP3 DUP3 MSTORE PUSH1 0x20 DUP3 ADD SWAP1 POP SWAP3 SWAP2 POP POP JUMP JUMPDEST PUSH32 0x4E6F7420656E6F75676820706F7461746F657320617661696C61626C652E0000 PUSH1 0x0 DUP3 ADD MSTORE POP JUMP JUMPDEST PUSH1 0x0 PUSH2 0x720 PUSH1 0x1E DUP4 PUSH2 0x6D9 JUMP JUMPDEST SWAP2 POP PUSH2 0x72B DUP3 PUSH2 0x6EA JUMP JUMPDEST PUSH1 0x20 DUP3 ADD SWAP1 POP SWAP2 SWAP1 POP JUMP JUMPDEST PUSH1 0x0 PUSH1 0x20 DUP3 ADD SWAP1 POP DUP2 DUP2 SUB PUSH1 0x0 DUP4 ADD MSTORE PUSH2 0x74F DUP2 PUSH2 0x713 JUMP JUMPDEST SWAP1 POP SWAP2 SWAP1 POP JUMP JUMPDEST PUSH32 0x506C6561736520627579203120706F7461746F20617420612074696D652E0000 PUSH1 0x0 DUP3 ADD MSTORE POP JUMP JUMPDEST PUSH1 0x0 PUSH2 0x78C PUSH1 0x1E DUP4 PUSH2 0x6D9 JUMP JUMPDEST SWAP2 POP PUSH2 0x797 DUP3 PUSH2 0x756 JUMP JUMPDEST PUSH1 0x20 DUP3 ADD SWAP1 POP SWAP2 SWAP1 POP JUMP JUMPDEST PUSH1 0x0 PUSH1 0x20 DUP3 ADD SWAP1 POP DUP2 DUP2 SUB PUSH1 0x0 DUP4 ADD MSTORE PUSH2 0x7BB DUP2 PUSH2 0x77F JUMP JUMPDEST SWAP1 POP SWAP2 SWAP1 POP JUMP JUMPDEST PUSH32 0x4E6F7420656E6F75676820736F757220637265616D20617661696C61626C652E PUSH1 0x0 DUP3 ADD MSTORE POP JUMP JUMPDEST PUSH1 0x0 PUSH2 0x7F8 PUSH1 0x20 DUP4 PUSH2 0x6D9 JUMP JUMPDEST SWAP2 POP PUSH2 0x803 DUP3 PUSH2 0x7C2 JUMP JUMPDEST PUSH1 0x20 DUP3 ADD SWAP1 POP SWAP2 SWAP1 POP JUMP JUMPDEST PUSH1 0x0 PUSH1 0x20 DUP3 ADD SWAP1 POP DUP2 DUP2 SUB PUSH1 0x0 DUP4 ADD MSTORE PUSH2 0x827 DUP2 PUSH2 0x7EB JUMP JUMPDEST SWAP1 POP SWAP2 SWAP1 POP JUMP JUMPDEST PUSH32 0x4E6F7420656E6F7567682063686565736520617661696C61626C652E00000000 PUSH1 0x0 DUP3 ADD MSTORE POP JUMP JUMPDEST PUSH1 0x0 PUSH2 0x864 PUSH1 0x1C DUP4 PUSH2 0x6D9 JUMP JUMPDEST SWAP2 POP PUSH2 0x86F DUP3 PUSH2 0x82E JUMP JUMPDEST PUSH1 0x20 DUP3 ADD SWAP1 POP SWAP2 SWAP1 POP JUMP JUMPDEST PUSH1 0x0 PUSH1 0x20 DUP3 ADD SWAP1 POP DUP2 DUP2 SUB PUSH1 0x0 DUP4 ADD MSTORE PUSH2 0x893 DUP2 PUSH2 0x857 JUMP JUMPDEST SWAP1 POP SWAP2 SWAP1 POP JUMP JUMPDEST PUSH32 0x4E6F7420656E6F756768206261636F6E20617661696C61626C652E0000000000 PUSH1 0x0 DUP3 ADD MSTORE POP JUMP JUMPDEST PUSH1 0x0 PUSH2 0x8D0 PUSH1 0x1B DUP4 PUSH2 0x6D9 JUMP JUMPDEST SWAP2 POP PUSH2 0x8DB DUP3 PUSH2 0x89A JUMP JUMPDEST PUSH1 0x20 DUP3 ADD SWAP1 POP SWAP2 SWAP1 POP JUMP JUMPDEST PUSH1 0x0 PUSH1 0x20 DUP3 ADD SWAP1 POP DUP2 DUP2 SUB PUSH1 0x0 DUP4 ADD MSTORE PUSH2 0x8FF DUP2 PUSH2 0x8C3 JUMP JUMPDEST SWAP1 POP SWAP2 SWAP1 POP JUMP JUMPDEST PUSH32 0x4E6F7420656E6F7567682063686976657320617661696C61626C652E00000000 PUSH1 0x0 DUP3 ADD MSTORE POP JUMP JUMPDEST PUSH1 0x0 PUSH2 0x93C PUSH1 0x1C DUP4 PUSH2 0x6D9 JUMP JUMPDEST SWAP2 POP PUSH2 0x947 DUP3 PUSH2 0x906 JUMP JUMPDEST PUSH1 0x20 DUP3 ADD SWAP1 POP SWAP2 SWAP1 POP JUMP JUMPDEST PUSH1 0x0 PUSH1 0x20 DUP3 ADD SWAP1 POP DUP2 DUP2 SUB PUSH1 0x0 DUP4 ADD MSTORE PUSH2 0x96B DUP2 PUSH2 0x92F JUMP JUMPDEST SWAP1 POP SWAP2 SWAP1 POP JUMP JUMPDEST PUSH1 0x0 PUSH2 0x97D DUP3 PUSH2 0x4E5 JUMP JUMPDEST SWAP2 POP PUSH2 0x988 DUP4 PUSH2 0x4E5 JUMP JUMPDEST SWAP3 POP DUP3 DUP3 MUL PUSH2 0x996 DUP2 PUSH2 0x4E5 JUMP JUMPDEST SWAP2 POP DUP3 DUP3 DIV DUP5 EQ DUP4 ISZERO OR PUSH2 0x9AD JUMPI PUSH2 0x9AC PUSH2 0x676 JUMP JUMPDEST JUMPDEST POP SWAP3 SWAP2 POP POP JUMP JUMPDEST PUSH32 0x4E6F7420656E6F756768204554482073656E742E000000000000000000000000 PUSH1 0x0 DUP3 ADD MSTORE POP JUMP JUMPDEST PUSH1 0x0 PUSH2 0x9EA PUSH1 0x14 DUP4 PUSH2 0x6D9 JUMP JUMPDEST SWAP2 POP PUSH2 0x9F5 DUP3 PUSH2 0x9B4 JUMP JUMPDEST PUSH1 0x20 DUP3 ADD SWAP1 POP SWAP2 SWAP1 POP JUMP JUMPDEST PUSH1 0x0 PUSH1 0x20 DUP3 ADD SWAP1 POP DUP2 DUP2 SUB PUSH1 0x0 DUP4 ADD MSTORE PUSH2 0xA19 DUP2 PUSH2 0x9DD JUMP JUMPDEST SWAP1 POP SWAP2 SWAP1 POP JUMP JUMPDEST PUSH1 0x0 PUSH2 0xA2B DUP3 PUSH2 0x4E5 JUMP JUMPDEST SWAP2 POP PUSH2 0xA36 DUP4 PUSH2 0x4E5 JUMP JUMPDEST SWAP3 POP DUP3 DUP3 SUB SWAP1 POP DUP2 DUP2 GT ISZERO PUSH2 0xA4E JUMPI PUSH2 0xA4D PUSH2 0x676 JUMP JUMPDEST JUMPDEST SWAP3 SWAP2 POP POP JUMP JUMPDEST PUSH32 0x4E487B7100000000000000000000000000000000000000000000000000000000 PUSH1 0x0 MSTORE PUSH1 0x41 PUSH1 0x4 MSTORE PUSH1 0x24 PUSH1 0x0 REVERT JUMPDEST PUSH32 0x4E487B7100000000000000000000000000000000000000000000000000000000 PUSH1 0x0 MSTORE PUSH1 0x32 PUSH1 0x4 MSTORE PUSH1 0x24 PUSH1 0x0 REVERT INVALID LOG2 PUSH5 0x6970667358 0x22 SLT KECCAK256 MLOAD RETURNDATASIZE PUSH32 0xA99F53FC266A766DD6197CD71AABD8F01F332A1C19A70D5698873780C964736F PUSH13 0x634300081B0033000000000000 "
        },
        "methodIdentifiers": {
          "addIngredient(uint256,uint256,uint256,uint256,uint256)": "30eab276",
          "buyPotato(uint256,uint256,uint256,uint256,uint256)": "7fe42825",
          "getIngredients()": "b0d14133"
        }
      }
    }
  }
}